:020000040800F2
:10000000E8070020C505000869040008B1050008DC
:1000100000000000000000000000000000000000E0
:10002000000000000000000000000000C106000801
:10003000000000000000000051060008191300082D
:10004000F1070008F1070008F1070008F1070008B0
:10005000F1070008F1070008F1070008F1070008A0
:10006000F1070008F1070008F1070008F107000890
:10007000F1070008F1070008F1070008F107000880
:10008000F1070008F1070008F1070008F107000870
:10009000F1070008F1070008F1070008F107000860
:1000A000F1070008F1070008F1070008F107000850
:0400B000F10700084C
:1000B40002B4714649084900095C49008E4402BCF7
:1000C4007047C046002934D00123002210B488426E
:1000D4002CD301242407A14204D2814202D2090173
:1000E4001B01F8E7E400A14204D2814202D2490094
:1000F4005B00F8E7884201D3401A1A434C08A04237
:1001040002D3001B5C0822438C08A04202D3001BCC
:100114009C082243CC08A04202D3001BDC082243E3
:10012400002803D01B0901D00909E3E7100010BC23
:10013400704701B5002000F00BF802BD0029F8D08B
:1001440003B5FFF7C1FF0EBC4243891A1847C046E6
:100154007047C0461C2101231B04984201D3000CA4
:1001640010391B0A984201D3000A08391B09984226
:1001740001D30009043902A2105C40187047C0463C
:10018400040302020101010100000000000000005C
:10019400002B11D1002A0FD1002900D1002802D050
:1001A4000021C943080007B4024802A14018029084
:1001B40003BDC0469DFFFFFF03B4684601B5029826
:1001C40000F02AF8019B9E4602B00CBC7047C04662
:1001D400D0400B00D1409C46203AD34018435242B1
:1001E40063469340184370479140030090409C46F7
:1001F400203A9340194352426346D340194370470F
:1002040010B5002903D1FFF7A5FF203002E0080054
:10021400FFF7A0FF10BDC046F0B506000F001500A3
:100224001C0085B08B4263D801D1824260D8210082
:100234002800FFF7E5FF390000903000FFF7E0FFEA
:10024400009B21001B1A1A0028000393FFF7CCFF20
:1002540000900191B94245D801D1B04242D8009BE7
:10026400019C01200021039AF61AA741FFF7BCFF65
:1002740004000D00039B002B2BD0019B009ADB078D
:1002840050081843019B5908039B9C46B9422CD83B
:1002940001D1B04229D832003B00121A8B41012609
:1002A40092185B410027B6185F4101235B429C44CE
:1002B4006346002BEAD130003900039AFFF788FF28
:1002C400039AA4197D4106000F00FFF78DFF241A3D
:1002D4008D410A9B002B01D01E605F602000290025
:1002E40005B0F0BD00240025C4E7B6197F41DCE762
:1002F40000240025EDE70000F0B5002601252D4C73
:1003040085B02368186802F0F2FB00284FD02368F8
:100314001A7918680192DB888268016994462B4235
:100324003ED1D022520313432F00234A1A40039292
:100334000A680292019A9740029ABA432B4202D069
:10034400029B3B431A0063460A601B68039A0199A7
:10035400984700282BDB2900236818681B799940EB
:1003640003691B680B421FD183681B6901369847D8
:100374000434042EC5D10024012529000D4AA3000C
:10038400D35818681B799940836801345B6998478E
:10039400042C00D100240021084801F095FCECE76E
:1003A400B02252035340BFE78368DB68DEE70020D6
:1003B40005B0F0BDCC2F0008FFFFEFFF881300004D
:1003C40010B5024B1B68984710BDC04600000020C2
:1003D40030B585B004000D0010220021684602F0FB
:1003E400E8FC6A4602239370044B2A002100684605
:1003F400019301F0EBFD05B030BDC046C503000814
:10040400014B18607047C04600000020F7B5040097
:100414000D001E00019201F075FC030002F0D2FCF5
:10042400054F32003B5001992800A04702F0CAFC56
:10043400385800F0D9F8C04608000000024B034ABF
:1004440000201A607047C0466400002000127A0041
:100454000221034A002053688B4353607047C0460F
:100464000058014010B5034B1B68984700F03AF858
:1004740010BDC0460400002030BFFDE7F0B5144BAA
:10048400144C85B007001819039101382100019319
:10049400FFF718FE104E114D44437019290001381E
:1004A400FFF710FE45432B190293029A039B0C4954
:1004B4009D1A2800019A02F073FC281932000021C9
:1004C40002F077FC0298083D08307D6605B0F0BD67
:1004D400000000000100000004000000040000000F
:1004E400CC2F0008044B99685869884202D003490C
:1004F400034A0A60704700006802002004ED00E02F
:100504000000001070B5224B0C005B6888B0DB055E
:10051400DB0D62B6BFF36F8F0025160E2900FF2E88
:1005240009D1F33E1640082E05D00100013512070B
:1005340001D5210000250024032B14D18B69154A11
:10054400934202D3144A934206D3144A002493429A
:1005540009D3134A934206D2023B1A88114B002452
:100564009A4200D10C682022684602F019FC079BCD
:10057400002D0AD0DA0502D10B4A134307936946CA
:10058400200002F001F808B070BD5B0A5B02F5E7D9
:1005940000ED00E0B4000008D42D000800000020A5
:1005A4000000002002DF0000FF010000EFF30880DC
:1005B400EFF3098101B57246FFF7A4FF01BDC04600
:1005C40072B607480749401880F30988EFF314808E
:1005D4000221084380F31488BFF36F8F01F0E5FF15
:1005E400A00200200002000010B50A4B9B68834261
:1005F4000DD1EFF30583002B09D08022064B520561
:1006040059680A435A605A6A04490A405A6202F015
:10061400EDFA10BD6802002000ED00E0FF7FFFFF4F
:100624000B21084A49429368D96698668023064993
:100634005B05486803434B6062B6BFF36F8F9368F2
:10064400D86E70476802002000ED00E015498A6802
:1006540015481044EFF3098CF0C043464C46554608
:100664005E466746F8C072B6104F114E4A698A60FA
:100674003E60104C141920680F4C2060906E0023CB
:100684009366002800D162B6074C10191030F8C8E0
:100694009846A146AA46B346BC462438F0C88CF313
:1006A40009887047680200203000000004ED00E073
:1006B400000000086400000090010020042071463E
:1006C400014202D0EFF3098001D1EFF30880816980
:1006D400023909780229FFD001B501F059FF01BDA3
:1006E40043B2000605D41F221A4001239340014A55
:1006F4001360704700E100E030B5FF2503220B00D2
:10070400290040B20240D20091409B012B40C943D2
:10071400934000280ADBC0240A4A8008800080181D
:10072400A40002590A401343035130BD0F22104064
:100734000838054A800880008018C26911401943AE
:10074400C161F2E700E100E000ED00E010B5203AFD
:100754001360029B01245360039B06499360049B2E
:10076400A143D36080235B04D361002391610265BC
:10077400836610BD11040008074B9860074B406E58
:100784001860101C81F30988002162B6BFF36F8FD3
:1007940000220023FFF73AFE6802002090010020A7
:1007A400014910220A60704710ED00E0BFF34F8F3B
:1007B40030BF62B6BFF36F8F7047C046F0B5C02438
:1007C40000220326FF25A40010002F003040C000A3
:1007D4008740054993089B005B1819590132B943B6
:1007E40019511D2AF0D1F0BD00E100E001B5EFF38D
:1007F40005800549401AC0000449014409C99847C5
:1008040009BC9E460249084710000000E42E000877
:10081400E904000810B5024B1B689847002010BD7E
:1008240094010020034B044A1860022391780B437F
:10083400937070479401002008000020072310B52E
:100844000449054A99430548521A01F054FE002010
:1008540010BDC046EF0700200020002098010020B2
:1008640070B5050000240126287800191F280FDC24
:100874003300834009494A691A40934208D14B61C5
:10088400074BC100CA58002A02D05B185968904728
:1008940001346B78E4B2A342E6D270BD0004014097
:1008A400A40100200022052010B50C4C110020707A
:1008B4006070FFF721FF002206201100A070E07095
:1008C400FFF71AFF0C220721054802F072FA0022F2
:1008D40007201100FFF710FF002010BD700000205A
:1008E4007400002010B5064B0200185601239340F3
:1008F40004490C6823430B60FFF7F2FE10BDC046A9
:1009040070000020000401401F2805DC0122824001
:1009140002490B6893430B607047C04600040140D2
:1009240010B50400080003290CD80123104AFFF76E
:10093400BFFB020A0E16A340916899439160D168E7
:100944009943D16010BDA34091681943F6E7A340D1
:10095400D1681943D160916899439160F2E7A3404B
:10096400916819439160D1680B43D360EAE7C046AC
:100974000004014030B5094BC000C4588C4203D177
:100984001D186D68954204D0002C04D119501B1811
:100994005A60002030BD10204042FBE7A401002033
:1009A4000022034BC000C2501B185A607047C04657
:1009B400A40100200B681A00143A082A07D8002062
:1009C400044A49689B181A680A431A6070478620CB
:1009D4004042FBE7001002400B681A00143A082A50
:1009E40007D80020044A49689B181A688A431A6089
:1009F400704786204042FBE7001002400B681A0053
:100A0400143A082A08D8084A48689B181B6898436F
:100A140043425841013070470220012BFBD0073B71
:100A2400012BF8D90138F6E70010024010B5124B3B
:100A3400140018680B68072B08D0082B12D008D8AC
:100A4400012B0CD0023B0020022B08D98620404207
:100A540007E0182B03D01C2B01D0142BF6D12060F7
:100A6400002010BD00F0C2F8002802D000F0BEF84B
:100A7400F5E70520EBE7C04664000020F8B500F078
:100A8400B9F800F0FDFC344C344A6368344F1B065B
:100A94001B0FD35C3D00D840137806001D41A842CB
:100AA40002D2280000F012FD80232268DB021343E7
:100AB4002360802322685B021343236080239B020C
:100AC40022681A42FCD00C2263681340082B16D10A
:100AD40023680A3A134206D1012321680B43236099
:100AE40023681342FCD003226368934363600C239E
:100AF40062681A42FCD1F0226368934363602368FE
:100B0400184A1340236000F05FF8802322685B04D6
:100B14001343236080239B0422681A42FCD0F022F2
:100B2400636893436360032362689A43013B1343FE
:100B34000C22636063681340082BFBD1AE4202D3DE
:100B4400280000F0C3FC084B084A1F6063680020BB
:100B540013406360F8BDC046001002402C32000808
:100B6400006CDC02FFFFFFFE64000020FFF8FFFFC3
:100B7400F0B50B68012B02D0073B012B1FD84B6843
:100B8400FF2B1AD0FF221C0007261F270D481440F4
:100B94002418580B1B0A3B40304098402568854375
:100BA4002560496807480A400B0C090A334039405C
:100BB4008B4012181068034313600020F0BD862098
:100BC4004042FBE700100240064B074A59681140B7
:100BD400882252030A430F215A60DA6A8A43DA628E
:100BE4007047C04600100240FFFFC2FF0048704734
:100BF400006CDC0280210A4B4905DA6982B00A43A1
:100C0400DA61DA690A4001210192019A9A690A4378
:100C14009A619B690B400093009B02B07047C046E9
:100C24000010024010B5084801F061FF002808D008
:100C3400064C2000FFF7F6FD2000FFF7E1FB002043
:100C440010BD13204042FBE7BC2E0008550C0008E1
:100C540070B50400074D0A2804D1AB680D212800A3
:100C64005B689847AB6828005B68E1B2984720004E
:100C740070BDC046BC2E000870B5036904005860FE
:100C8400094D280001F033FF002809D06168AB68E2
:100C940028001B680C319847002800DD002070BD37
:100CA40013204042FBE7C046442E0008F8B51D005F
:100CB40080230C00466811009B03026999421BD1F2
:100CC400A210284903230232920052580F212340D4
:100CD4009B0099400A40DA401300B2689A4209D155
:100CE4002000FFF711FE2000FFF75AFE002120002C
:100CF400FFF716FE0020F8BD8023DB0399422CD0B9
:100D040020001949FFF736FE002829D121000F27BA
:100D1400033001408900B6688F408E40114AA31009
:100D24009B009B189A680121BA4332439A6080233E
:100D3400DB049D420AD0C0230100DB049D4205D0A0
:100D4400FE231B06ED186B425D4169002000FFF78E
:100D5400E7FD2000FFF7C6FDCCE786204042CAE746
:100D64001020FBE70000014079270008F7B50400D4
:100D74000025C90043180193019B9C4201D1002026
:100D840034E01F27102223681F40134216D1202568
:100D940062681543FF215A0A12010A405B09F039BF
:100DA4000B40134300931109A02A20D8114B89004A
:100DB400CE58002E0AD11320404217E0102F03D042
:100DC400112FE7D16568E5E73025E3E7300001F04E
:100DD4008EFE0028EFD00F2300992A00194030001E
:100DE4003B0001F0E1FC08340028C5DAFEBD162002
:100DF400E2E7C0465C30000837B503694568186807
:100E04000C008368E968DB68002B11D001AA9847BD
:100E140000280DDB2A680749136860080B4013603B
:100E2400019B2100C018FFF74DF92D6880B2E860DE
:100E340037BDC046FF7FFFFF10B541680868EFF378
:100E44001084012383F3108882689A43826084F3B8
:100E540010880A68EFF3108183F31088034813683D
:100E64000340136081F3108810BDC046FFFEFFFFEE
:100E7400F0B50C00036941685D68237985B0012BE6
:100E840033D09A1E5642724192026679013E771E11
:100E9400BE4176030396A679042E29D05E1EB34183
:100EA4001B030193E67900270296012E01D1C02786
:100EB400BF000968A5421ED10C68374E019B34401F
:100EC400224313430B604B68344A1340039A134381
:100ED4004B60436832491A6893680B403B43936004
:100EE4002968FFF789FF05B0F0BDC022D200CCE726
:100EF40080235B01D5E7C0230E68DB001E40B242AD
:100F040004D00E68274B1E4016430E60C02642686C
:100F1400039B1168B6014A6832409A4204D04A6879
:100F24001E4E32401A434A6080264268019B116873
:100F340076010A683240934204D00A681A4E32405D
:100F440013430B60C021436889001A6893680B40FF
:100F54009F4204D0936812490B403B439360802224
:100F64004368D2011B689968114206D0029A032A89
:100F740009D09A680D490A4004E00299032902D174
:100F840099680A439A6021682B689942ABD0FFF7AD
:100F940033FF23682B60A6E7FFE9FFFFFFCFFFFFC6
:100FA400FFFCFFFFFFF9FFFFFFEFFFFFFFBFFFFFA6
:100FB400F7B50C00036945685B6801930979A77963
:100FC40001290AD16279531E591E8B41C0215B034A
:100FD400042F0CD1862040423AE002290FD1042F7D
:100FE400F8D06279531E591E8B4180215B03C900DE
:100FF400002B01D0032AEDD1002935D1EAE762792B
:10100400531E5E1EB3415B03042F22D10029E1D19C
:10101400002B01D0032ADDD1E379002B08D0012B6A
:1010240025D12B68134A934202D0134A9342D1D15B
:1010340001272A6821001368BB431360FFF718FFD8
:1010440000202B68019E1A6817431F6006CC06C651
:10105400FEBD002904D003390129BBD90021C7E70B
:10106400002B01D0032AB5D1032FD5D0B2E7032B2F
:10107400D7D0AFE70038014000440040F7B5050081
:10108400466804695448206001F031FD002802D10B
:10109400132040429DE02068F16883681B689847EC
:1010A400002800DA95E00021306A01AA01F091FBE2
:1010B400002800DA8DE0019B002219791868FFF7F7
:1010C40055FE002800DA84E001216C682B6922684F
:1010D4005F6813688B431360606801F008FD0028A3
:1010E400D6D06068A1688368DB68002B00D098477D
:1010F4002268EFF31081012383F310880C20136816
:101104000343136081F3108839002800FFF7B0FE11
:10111400237D002B04D00823226891680B4393603D
:10112400637D002B05D080212268090253680B439C
:101134005360A37D002B05D08021226849025368A7
:101144000B435360E37D002B05D080212268890284
:1011540053680B435360227E2368002A25D01F4A1C
:10116400934202D01E4A934234D16B681D481A68D8
:1011740080239168DB010B4393602168637E0A68D6
:101184005B05024013430B602168A37E0A6816487E
:101194001B04024013430B60E37E002B05D0802127
:1011A4002268090293680B43936001232268116843
:1011B4000B431360802223689203D9691142FCD047
:1011C4008022D203D9691142FCD02800736A98475F
:1011D4000020FEBD16205CE7442E000800380140C4
:1011E40000440040FFFF1FFCFFFFE0FFC02210B5DA
:1011F40080240369D2005B68E4001B680B604368C9
:101204001B681B6813400222A34204D01A4A9B188D
:101214005A425341DAB20A71C022436892011B68F0
:101224005C680323144200D1023BC0244B71436821
:10123400E4001B681A681B682340D20418D55A427C
:1012440053410333C0228B71436892001B689B682F
:1012540013400A4A9B185A425341DBB2CB7142688D
:1012640012689268520400D503230020CB7110BD8C
:101274005A4253410233E5E700FAFFFF00FDFFFF46
:1012840070B580251049114B8C681B680E68104896
:101294008A686D02002C08D1002A11D11A002E424E
:1012A40009D100681818801A70BD002A0AD02E428D
:1012B40001D1A242F5D90468E41804600968F0E792
:1012C4001C00F4E71A00F2E710E000E060020020DE
:1012D400540200200A4A0020136A1B021B0A1362EC
:1012E4009622084B52011A60074B084A1860084BB3
:1012F4005A600722986019680A431A607047C0460A
:1013040000ED00E06002002054020020BF12000043
:1013140010E000E070B5FFF7B3FF0C4B0C4A1868FF
:1013240011680C4C401810609621002225681A6040
:101334004901401BFEF7C6FE96235B0143435B193C
:10134400236000F0B7FDFFF7CDF870BD5402002014
:101354005C02002058020020F0B5334D334E85B0B6
:10136400002953D0431C08D101222B6893432B60DE
:10137400FF231B06336005B0F0BD336801930027DB
:10138400012848DCEFF3108372B60393FFF778FF6C
:101394000022AB680293264B1C68264B04191A6082
:1013A400254B1B680093E01A90423ADB96235B01BD
:1013B4005F43224AC01919008018FEF783FE962362
:1013C4005B015843009B1B1B18188023DB009842C9
:1013D40000D218001A4B984200D91800002330603C
:1013E4000138A9686860AB60029B02985B1A1A19FD
:1013F400884202D2019A9B181A190D4B1A60039B5A
:10140400002BB8D162B6BFF36F8FB4E73368019392
:10141400431CB4D10B480C4B984200DD1800471E06
:10142400B0E78020C000D9E710E000E060020020AF
:101434005C0200205402002058020020BF12000069
:1014440080E8FF00A60D0000A70D000070B5EFF3C3
:10145400108572B6084A094B14681B68E41AFFF732
:101464000FFF0019002D02D162B6BFF36F8F9621D2
:101474004901FEF727FE70BD5C02002058020020DF
:101484000C2270B50C4D6B681A40082A11D10F203C
:101494000A499A0C02408C5CEA6ADB0307D50849C6
:1014A4000240895C0748FEF70DFE604370BD0648A4
:1014B400FBE70448FAE7C046001002404C3200083B
:1014C4003C32000800127A0000093D00020010B509
:1014D4000120002A11D0094B094993429B410A6813
:1014E4005B4282431A430A600C681A000440A34218
:1014F40001D00A6802405A40100010BD00366E0147
:101504000020024070B5EFF3108572B6064B9C685C
:1015140001F0FEFA002D02D162B6BFF36F8F2000F6
:10152400FFF762F870BDC04668020020F7B50127D6
:10153400124E830001309C5983000193019BF358A0
:10154400A34200D8F7BD65682368002D13D0002B93
:101554000BD028009847002807D0C2178018EB68E2
:101564005040FF2800DDFF201870EA6853783B43A1
:1015740053700834E2E79847FBE7C0468831000817
:1015840010B50124094B03201C70FFF7CFFF00F0B6
:1015940015FD0420FFF7CAFF00F0E2F8FEF7ACFEE9
:1015A400034A137BA343137310BDC0469802002063
:1015B4000001002010B5034A03480021121A01F06B
:1015C400AAFA10BD9C02002090000020C82211003D
:1015D400F0B5702741430F25040047431248012604
:1015E4000918002087B00395053565430F4B059016
:1015F400029001900E48FF182D180E4B38000496E7
:10160400009500F075F804227B7B2C7493437B7364
:10161400A419094B6402E418EF606C6007483100B8
:1016240001F01FFB07B0F0BDA004002090000020D3
:10163400680200202B2C0008A00200206402002075
:10164400F0B50020A3B0FFF771FF214B83F30888A6
:101654002049214B0A6A00251A40C0231B04134366
:101664000B6200F09BFFFFF79BF802221B4E06ABB8
:10167400FF329A81B3601E9501F038FA0120FFF71A
:1016840055FF0220FFF752FF00F092FA144C154B5D
:101694007461A02205930123134E1449049392000C
:1016A40033002000039502950195009500F020F881
:1016B40004220700637B20009343637301F046FA1E
:1016C4002800FFF783FF320039002000FFF754F8A9
:1016D400A004002000ED00E0FFFF00FF68020020EE
:1016E400000100205C320008851500086805002010
:1016F400F0B587B00593030058338365C365109B29
:101704000727037304230025437307320F9BBA434F
:1017140083738B180E0085601900C5738561C561DC
:1017240004000493FEF7AAFE049BC019B8431F1AD1
:101734000E9B3A0002930D9B310001930C9B2000F9
:101744000093059BFFF702F8044B65659B68AB4269
:1017540000D01B6E3800236607B0F0BD680200207D
:1017640070B51B4C86B026001A4DAC4207D300F06E
:10177400F9F9AE4219D300F005FA06B070BD636AF8
:101784000593236A0493E3690393A369029363694A
:10179400019323690093E368A26861682068FFF7F6
:1017A400A7FF23685C653034DEE7B26AF36A511C34
:1017B40001D1591C05D011003068194303D100F040
:1017C400A1F93036D5E70449183000F005FBF8E7F5
:1017D400CC2F0008CC2F0008D72B0008C2890300A7
:1017E40000207F2A11D80A4A106800280DD00E2143
:1017F400084A595612680020914206DB5A7BD206E9
:1018040003D10548181A431E984101231840704714
:10181400900200208C020020900000200121044B43
:10182400044AC01A044BC0104343D1547047C04605
:101834007001002099020020ABAAAAAA70B518244E
:101844000C4B05001E7C0C4B7443E418200001F083
:10185400F1F90022094B28009A55FFF7BFFF002831
:1018640007D0074B20001A680649013AD31700F045
:10187400B3FA70BD680200207001002099020020B4
:10188400900200202118000870B50E4D0E4BAC6973
:101894009C4201D0002C00D1EC68AB68002808D130
:1018A4005A7BD20605D1A269002A02D1DA897F2A9D
:1018B40005D89C4202D02000FFF7C0FF23006B61D3
:1018C40070BDC04668020020800200200D2270B561
:1018D40082560400437B002A04DA7F2213404373B8
:1018E40001F021F98023627B5B421343134A637343
:1018F40093691348834200D10023D169002B04D19A
:10190400206061600C60D4610CE00E250E266557E2
:101914009E57B5420DD0AE420BDD5968236061601D
:101924000C605C609068001B43425841FFF7ACFFB9
:1019340070BD9942E4D01B68E0E7C046680200200D
:10194400800200200D2370B5C356417B002B26DB9B
:10195400CB0624D18369002B21D1802252420A4331
:101964004273114A114C9169A14200D00B00D16914
:10197400002B04D1046041600860D0610CE00E25A6
:101984000E2645579E57B5420AD0AE4208DD5A6826
:1019940003604260106058600020FFF775FF70BD5F
:1019A4008B42E7D01B68E3E7680200208002002036
:1019B4000D2210B582560400437B002A04DA7F22EC
:1019C4001340437301F0AFF8034B9868001B434284
:1019D4005841FFF759FF10BD6802002070B504009C
:1019E4000D001026002A00D0083E637B33420DD13F
:1019F40033436022190091430A0049B2002911DBE4
:101A04006273082E15D00120FFF73EFF1B4B9B6825
:101A1400A3422CD1EFF30583002B28D12800FEF735
:101A2400FFFD70BD1F2213402000637301F07BF89B
:101A3400E7E7A368002B02D0200001F07CF8200027
:101A4400183001F0F7F82300A66D58339E42DAD01F
:101A5400002ED8D0300001F06EF83000183001F0BC
:101A6400E9F800233000F366FFF76CFFEBE7002D85
:101A7400D7D162B6BFF36F8FD3E7C04668020020A8
:101A840070B5EFF3108572B6104A114B946818685C
:101A9400A04207D1FFF7D2FE002D02D162B6BFF3F8
:101AA4006F8F70BD00211960127C0A4B9B5C8B42C6
:101AB400F2D02000FFF792FE0028EDD0637BDB0616
:101AC40002D12000FFF702FF2000E3E768020020B4
:101AD400880200209902002010B500290AD1EFF3F2
:101AE4000580002807D1064B9A685B699A4202D0A8
:101AF400FEF796FD10BD62B6BFF36F8FFAE7C046DE
:101B04006802002010B5EFF3108472B60422437B00
:101B1400134205D1002C02D162B6BFF36F8F10BD02
:101B240093434373FFF70EFF21000248FFF7D4FFEE
:101B3400F5E7C0469A02002010B500280AD1EFF359
:101B44000580002807D1064B5A699B689A4202D047
:101B5400FEF766FD10BD62B6BFF36F8FFAE7C046AD
:101B640068020020EFF3108172B6054B9A68D37BAC
:101B7400013BD373002902D162B6BFF36F8F704764
:101B84006802002010B5EFF3108472B6074B0020F2
:101B94009A68D37B0133D373FFF776FE002C02D10E
:101BA40062B6BFF36F8F01F01AF810BD680200200F
:101BB400024B034A9A61DA617047C046680200200A
:101BC40080020020F8B5EFF3108572B67F22194C1D
:101BD400A068437B1340437300F0A5FF8022A368F1
:101BE4005242597B14480A435A73A269824200D173
:101BF4000022E169002A04D1186059600B60E36196
:101C04000CE00E260E279E57D757BE420DD0B74282
:101C14000BDD51681A6059600B6053600120FFF7B7
:101C240033FE2800FEF7FCFCF8BD8A42E4D01268BB
:101C3400E0E7C04668020020800200200300F7B5F8
:101C44000B4304000D00002B03D1FFF7BBFF002062
:101C5400FEBD4B1C2EDB4B1C01D1831C2AD300F090
:101C6400FCFF2718EFF3108372B6144E0193B0688B
:101C7400134B1860FFF79CFEB06822002B0011493B
:101C8400183000F0A9F81023B2680198517B0B4377
:101C94005373FEF7C5FC00F0E0FF00233A00040094
:101CA4001D00121BAB41AB4202DCD0D1AA42CED004
:101CB4001000CDE702277F423F1BD3E768020020D4
:101CC40088020020D72B000810B50B000C00421C22
:101CD40007D1013305D10A4B986800F043FF200077
:101CE40010BD2100FFF7AAFF00210200C31709203D
:101CF400801859410A220023FEF74AFAF0E7C04649
:101D040068020020014B98687047C04668020020B2
:101D140010B50648064A0749121A00F000FF064AA1
:101D24000649074800F0FBFE10BDC0460000002035
:101D340090000020B432000800000000B432000813
:101D440000000020002010B5034B1B68834201D122
:101D5400FFF77CFB10BDC0469402002070B50E4B0B
:101D64001E689E4203D1FFF7EDFF0C4870BDFFF7DC
:101D7400E9FF002EF9D0326973690400C517121BFC
:101D8400AB41002BF1DC03D1802109068A42ECD25D
:101D9400D843C0171040E9E768000020FFFFFF7F29
:101DA40030B500280ED00B4B5B6898420AD001680E
:101DB400002907D00A694B690469456912196B4106
:101DC4000A614B610368426813605A600023036030
:101DD400436030BD68000020F7B5040016001F0002
:101DE400531C01D17B1C57D0A160EFF3108372B652
:101DF4000193002F23DA7B1C01D1B31C1FD82B4B7A
:101E04001868596802225242D317121A8B41921B46
:101E1400BB41002B04DC01D1002A01D101220023A3
:101E2400234F226163613D68BD4200D100257E6875
:101E3400002D0FD12760666034607C601CE0FFF7E2
:101E440081FF0122002392197B410600C7179219D2
:101E54007B41E5E72869696922696369994202DC83
:101E64001BD1904219D9801A99416B682861696124
:101E7400636025601C606C603B68BB4206D09C427A
:101E840004D1FFF76BFF0021FFF766FA019B002BDB
:101E940002D162B6BFF36F8FF7BD121A8B41226174
:101EA4006361B542C6D02D68C2E7C04688010020F0
:101EB40068000020F0B585B0EFF3108372B602938A
:101EC400304B1860304B1C689C4200D100242F4BCF
:101ED4002C4D0393186859682B689C46002C39D004
:101EE40062692669DB179A4202DC0AD1664508D981
:101EF4001F00226963696646921BBB4122616361CC
:101F040028E0F31700960193009A019B8018594129
:101F1400002300221D4F2261636138607960200034
:101F2400FFF73EFF029B002B02D162B6BFF36F8F17
:101F34002000A3689847EFF3108372B60293114B05
:101F44001A68921B1A60104B94461C689C42BED1BE
:101F5400386879686246D31712184B4100240399F4
:101F64002C600A604B60FFF7F9FE2100FFF7F4F9DB
:101F7400029BA34202D162B6BFF36F8FFFF780FDCD
:101F840005B0F0BD94020020680000208801002004
:101F940010B5EFF3108472B6FFF7D4FE02000649C1
:101FA400C3170868496880185941002C02D162B6E9
:101FB400BFF36F8F10BDC0468801002010B50248E2
:101FC40000F0D5FA10BDC04661320008F0B5436890
:101FD40093B003900893837815009B0700D4F8E02E
:101FE400002301930E78002E6AD0252E0DD04B1CB1
:101FF4000993019B013301930399089BF0B298471D
:10200400002800DADFE00999ECE74E788B1C09938D
:10201400252EEED0002304211C00099A0293079375
:1020240009921F2C2ED83000203810280AD8FEF729
:102034003FF81D0909270909091E0909091B092572
:10204400090918003300303B092B29D92A2E32D133
:1020540008CD600622D4002B29DB202007930443FB
:1020640005E001231C4302E002231C430C43099BAB
:1020740001321E78002ED3D109922DE00823F1E716
:102084001023EFE77F2C1ED83300303B092BDDD81B
:10209400600605D50A20029E7043C3180293E6E742
:1020A4000A20079E7043C31807932023DAE75B4294
:1020B40007932823D6E72E2E05D140231C42D1D0E6
:1020C400019813B0F0BD6C2E2DD027D8682E31D0D6
:1020D4006A2E32D04C2E30D0029B002B03DA4023E0
:1020E4009C4300230293202333431A00653A022AB7
:1020F40001D9612B24D10722EB1D934308331D0022
:10210400AB4F0292240753D5019A029B16009C18E8
:10211400B4424FD1079B029A9E1A82E1742EA6D034
:102124007A2EA4D0D8E780231C429BD08020800044
:10213400044397E780235B00F6E7A0239B0091E725
:1021440030006338122800D9E3E0FDF7B1FF0A46F6
:10215400E2E2E2E246E2E2E2E2E2F3DDE2E211E2BC
:10216400AD0004CD0CAB1A7001230CAF0293C9E788
:1021740080CD002F00D18F4F0299630601D4012135
:102184004942380000F07AFD0290BBE72020039911
:10219400089B9847002816DB013C029BA342F5D319
:1021A400079A019B944663441B1B01930794ABE776
:1021B400079CF2E7019B0399FB1A985D089B9847DB
:1021C40001360028A4DA039B9A7804231343039A64
:1021D400937001235B42019372E723063FD5A30565
:1021E40037D50722073595432F000CCF049205936A
:1021F400102325009D43059B002B3ADA0499059A88
:1022040000244B429441049305948023DB001D4336
:10221400ADB20CAC0A2304980599220000F039FDF4
:10222400041B6B0665D501232A009A431300029A06
:10223400A24200DCA4E0002E00D19CE01022290080
:1022440011400B91154200D09CE0029A1D000692A9
:102254001EE02F0008CF0493DB170593C8E72F0077
:1022640008CFE205F7D5A20501D55BB2F3E71BB2AF
:10227400F1E7049B059A1343CBD16306C9D5029BAE
:10228400002BC6D111339C43029B25001C000693EE
:102294002A00494B1A400B921D4277D0069B01330A
:1022A400069300230B9371E010239C43063B9C464A
:1022B400802322001A4006921C4242D0210081331E
:1022C400FF3319401C4239D00722EB1D93431F00F2
:1022D40003CB083703000B4346D1250016339D4337
:1022E400630644D5029B002B41D117339C43250040
:1022F400029C10232A001A400B921D4256D0631CE4
:10230400002E42D022003FE0102378269C461C4336
:10231400CEE7782B04D110229B1B1A439446C7E7BF
:1023240025200399089B9847002800DA4BE7019B76
:10233400023360E6082300269C46B9E72F0001CF4C
:10234400C8E72F008022210008CF52001800114056
:102354001442BFD0802221009200114098B214424E
:10236400B8D00699D8B2B5E706239C4325000CAC37
:102374006346220052E711239D43029B069387E79D
:102384001D00B6E71D00029A931C06932B072AD45E
:10239400EB0709D5079B069A0294934204DD9B1A26
:1023A4001B190293079B0693069B10E006946FE7A4
:1023B400AA320008A3320008060400002020039972
:1023C400089B9847002800DAFDE60A9B01330A932C
:1023D4000A9A079B9342F1DC069A019B9B1A0A9A7C
:1023E4009B18019306920B9B002B25D03020039958
:1023F400089B9847002800DAE5E6019B002E12D1DD
:1024040001330193019E029B019A9B189B1BA342DB
:1024140020DC2500002D25D13D00079B069AA41938
:102424009E1A019431E002330193F0B20399089BA0
:1024340098470028E6DAC6E6174B1D42E2D0202072
:10244400AB0700D50B306D0500D52D20019B013362
:102454000193EBE730200399089B01369847002845
:10246400D1DAB0E60CAB013DE85C0399089B9847D0
:102474000028CFDAA7E6019B2020013301930399BA
:10248400089B9847002800DA9DE6019AA3199B1A35
:10249400002BF0DCB7E5C046060400007047C90015
:1024A4004018408840087047F8B50D000400FFF755
:1024B400F6FFFDF74FFE1F21091A8A00A218EB0050
:1024C40010691F1D0633E719E318AEB2002808D1BE
:1024D40001308840E1680143E16015613E801E805F
:1024E400F8BDC1000431625A3A80D200A2181880A3
:1024F400D6806652F4E70723F7B50027043ACC1DCB
:1025040089189C4399430B1BDE080460A660E760AE
:102514003000009301912425FDF71CFE20222D1A82
:10252400121A200039009200103000F042FC0123FE
:10253400AD000735ED086A001A436280711BEA009A
:10254400A0184B0027804380009BA552E218019BF2
:10255400578019800123F600A619728829001343B5
:1025640073802000FFF7A0FFF7BD002070470FB471
:1025740007B504A901C90191FDF72AFF03B008BCFE
:1025840004B018477047704710B5FEF7BBFF10BD85
:1025940010B501000068FEF7B5FF10BD704710B517
:1025A40000210120FFF7F0FF10BD10B5FFF7EBFF8E
:1025B400FFF700F8FFF7ACFBFEF700F9FFF740F870
:1025C40010B5FEF727F9002010BD436800205B68B2
:1025D4001B690B60704743685B685869424011404F
:1025E4004140596100207047436800205B6899614D
:1025F4007047436800205B68996270474368002015
:102604005A6853694B405361704710B50369986821
:10261400002821D088421BD10868DC689860A14258
:1026240000D1D86000200860824206D09A680A600F
:10263400DA689960002A00D1D960002010E0814254
:1026440006D108682060D8688142EBD1DC60E9E7F4
:10265400040000680028F2D1002AE7D11620404285
:1026640010BDF0B50126302485B0029343683000D4
:10267400144001949409884034408C405D680236CB
:1026840085432C435C609C680327A44604008C406B
:102694006643F5430395D5093D4065432F006546E0
:1026A400B5432F439F600327520A3A406243DD68D3
:1026B400B5432A43DA60019A202A0DD1072915DC93
:1026C40022008A408A400F215143186A88430299A4
:1026D40051430A0002431A62019A196812095443C9
:1026E400039A11400C431C6005B0F0BD0F21000A91
:1026F4004043404341435A6A8A43029941430A434F
:102704005A62E9E7130070B59A0318D59A070FD5F2
:102714005A072CD55022DC060CD58024A400224371
:1027240045681C0319D501248C406B689C610EE03C
:102734001022F0E79C06F3D58024E400EFE7302272
:10274400DC0304D5DA060FD49B06DB0F9A0240683B
:102754000023FFF786FF002070BD5B03F7D501243B
:102764008C406B689C62F2E780229200EFE786203F
:102774004042F1E770B50B008968002905D00125B6
:1027840085405E680C68002900D170BD8B681A0012
:102794002A402B4202D030004B689847231E00D0B9
:1027A400236821001C00EEE7F8B5050040681F000F
:1027B4000E001400FFF755FF112F06D101236A689C
:1027C400B3405268240502D593610020F8BD93629A
:1027D400FBE730B50368136005790468ED006419FC
:1027E400A34202D30220404230BD5C798C4201D026
:1027F4000833F0E70020F7E74068CB0300681B0DBF
:102804001B181F2001401E3888401B680340591EB6
:102814008B410020137070474268CB0312681B0D74
:102824009B181F2211401E3A8A40186802431A60FE
:102834000020704742681F20CB0301401E388840A7
:1028440012681B0D9B181A6882431A600020704797
:1028540070B50D000400FFF7DFFF29002000FFF72B
:10286400E9FF002070BD012130B5426802241368DD
:10287400D869DD69C00808400D4200D02043DD69F5
:102884000421254200D00843DC690C4201D02021F8
:102894000843C10701D508211962830702D5012124
:1028A40013681962430702D502211368196283066B
:1028B40002D5136804221A6230BD43681A68EFF324
:1028C4001081012383F3108810683F33034313609E
:1028D40081F31088704743681A68EFF3108101236D
:1028E40083F31088402013688343136081F31088B6
:1028F400704743681A68EFF31081012383F310884B
:1029040010681F330343136081F3108870474368D2
:102914001A68EFF31081012383F3108820201368D1
:102924008343136081F31088704743681B68D86938
:102934008006C00F704710B541680868EFF3108433
:10294400012383F3108882681A43826084F3108819
:102954000A68EFF3108183F310881068FF33034390
:10296400136081F3108810BD0120704703699960DA
:10297400DA60704710B502699368002B01D0D16802
:10298400984710BD002210B511001B20FDF7B4FEBE
:102994001B20FDF7A5FE10BD002210B511001C2060
:1029A400FDF7AAFE1C20FDF79BFE10BD43681B68C3
:1029B400D8694006C00F7047436800201B68DA6975
:1029C400120602D518684006C00F7047F7B5446870
:1029D4000192236818681D68C00403D5C020C00094
:1029E40005421BD08026DB690020334215D0EFF36B
:1029F400108772B60300019A18009A4208DD256810
:102A0400EA69324204D0C85C01332885DBB2F2E7BC
:102A1400002F02D162B6BFF36F8FFEBD8620404205
:102A2400FBE7802230B543681C68E0691042FCD0A3
:102A3400EFF3108072B61C68E569154205D10028D1
:102A4400F2D162B6BFF36F8FEEE72185002800D084
:102A540030BD62B6BFF36F8FFAE7202243681B686C
:102A6400D969114203D019680120114206D1DA69EB
:102A74000020520602D518684006C00F7047F7B50B
:102A840044680192236818681D680023C00403D5B4
:102A9400C020C000054213D00825019A18009A42AC
:102AA40010DD20222668F76917420BD0B08CC85479
:102AB40020680133C669DBB22E42EED00562ECE732
:102AC40086204042FEBD10B5436808201A68D469C8
:102AD400044200D010621B68DA69920603D5002014
:102AE4009B8C0B7010BD01204042FBE7704700280F
:102AF40009D00123C26800205178194202D010780D
:102B04004242504118407047EFF3108372B6FEE71B
:102B140010B5FFF7F9FF10B500F04BF910BD10B573
:102B240000F03EF910BD0368426813605A60002348
:102B340003604360704710B50400FFF7F4FF0222FE
:102B4400637B934363730023A36010BD10B5EFF35D
:102B5400108472B6FEF7F6FE002C02D162B6BFF303
:102B64006F8F10BD10B50400183000F063F8EFF358
:102B7400108172B6607B102302001A40184205D0FF
:102B8400002902D162B6BFF36F8F10BD2000FEF79B
:102B940025FFFAE770B504000E00EFF3108572B656
:102BA4002823427B1A420ED18368002B01D0FFF701
:102BB400C2FF0422637B002E00D014229343200022
:102BC4006373FEF7BFFE002D02D162B6BFF36F8FB1
:102BD40070BD10B501211838FFF7DCFF10BD10B52A
:102BE400EFF3108072B6FEF7A7FF10BD10B5EFF338
:102BF400108172B60122037B134208D0002902D14E
:102C040062B6BFF36F8F042062B602DF10BD437B50
:102C14001B0705D50029F9D162B6BFF36F8FF5E71D
:102C2400FEF7DCFEF2E710B5EFF3108372B6FDF7A2
:102C3400BDFDF9E710B5EFF3108472B60368002BFD
:102C440008D0FFF7ADF80020002C02D162B6BFF324
:102C54006F8F10BD16204042F6E710B5FFF798F9C4
:102C640010BD0300EFF3108272B6006841181960BA
:102C7400002A02D162B6BFF36F8F70470300411878
:102C84008B4202D01A78002A01D1181A70470133F6
:102C9400F6E7F0B50D003721C91A8FB0C9B20D910E
:102CA4001F2104000B400C930C99E3B2082955D062
:102CB400102900D164E0E907600808436908069018
:102CC4000791A008A9070843A90808900991089E3C
:102CD400099F06980799801979410E07B446060999
:102CE40000966646009F37430E0900970196009EA2
:102CF400019F801979410E06B4466746060A3E4391
:102D040002960E0A0396029E039F801979410E04CF
:102D1400B4466746060C3E4304960E0C0596049E84
:102D2400059F8019794100260A910B960A9E0B9FF4
:102D3400801979414E07CD080521C4083443614305
:102D440049005B1ADBB2092B12D9012000210A3B8E
:102D540024184D41DBB21DE00200A5E707210B401A
:102D640069078C466646E008E908064334000D000E
:102D7400303313702300501C2B43EDD10FB0F0BD42
:102D84000F210B4029078C46664620092909064372
:102D940034000D00092BEBD90D99CB18DBB2E7E712
:102DA400002310B59A4200D110BDCC5CC454013349
:102DB400F8E703008218934200D170471970013379
:102DC400F9E7000001480068704700009001002006
:082DD40048D4FF7F010000005C
:102DDC004104000800000000810A0008442E00088D
:102DEC00550400080000000000000000582E0008E8
:102DFC007D0C0008802E00087D0C0008A82E000811
:102E0C007D0C0008942E0008A90800086C2E000800
:102E1C0081100008BC2E000881100008D02E00087C
:102E2C00290C000800000000D91200080000000066
:082E3C0041080008000000003D
:102E4400C4310008000000001800002082000020A7
:102E540000000000FB310008883000088C300008B6
:102E64008A00002000000000A631000800000000D5
:102E74000000000080000020A4010020D1310008DF
:102E8400FC2F0008383000088400002024020020B1
:102E9400DF310008103000083830000886000020B8
:102EA40034020020ED3100082430000838300008D6
:102EB40088000020440200200C3200089C300008E6
:102EC4003C3100088C000020340000201C32000833
:102ED400EC3000083C3100088E0000204C0000203B
:102EE40000000000A325000800000000A32500083E
:102EF40000000000A325000800000000A32500082E
:102F040000000000A3250008A4310008650800089B
:102F1400A231000865080008A0310008650800080F
:102F240000000000A325000800000000A3250008FD
:102F340000000000A325000800000000A3250008ED
:102F440000000000A325000800000000A3250008DD
:102F540000000000A325000800000000A3250008CD
:102F640000000000A325000800000000A3250008BD
:102F740000000000A325000800000000A3250008AD
:102F840000000000A325000800000000A32500089D
:102F940000000000A325000800000000A32500088D
:102FA40000000000A325000800000000A32500087D
:102FB40000000000A3250008D02E0008792900088D
:082FC400BC2E00087929000869
:102FCC00F42F0008EC2F0008E42F0008DC2F000879
:102FDC00942E000806000000942E00080500000046
:102FEC00942E000803000000A82E00080A00000020
:102FFC00FFFF000000080048020000001400000061
:10300C0000000800FFFF0000000400480100000061
:10301C001400000000000400FFFF00000000004846
:10302C000000000014000000000002000927000846
:10303C00CF250008DB250008ED250008F725000842
:10304C0001260008B10C00080F2600080000000043
:10305C00A82E0008942E0008802E00080000000006
:10306C000000000000000000000000000000000054
:10307C0000000000000000000000000000100240F2
:10308C00FD2700081D2800083928000855280008CD
:10309C0000440040582E000811020000C430000803
:1030AC000100000000000000000000000000000013
:1030BC00CC3000089D2900081C0000000000020014
:1030CC00D430000801000000DC30000802000000D1
:1030DC004100000000020000610000000000000040
:1030EC0000380140582E00088E01000014310008F1
:1030FC0001000000000000000000000000000000C3
:10310C001C3100088929000818000000004000004C
:10311C0024310008010000002C31000802000000DE
:10312C00210100000002000041010000000000002D
:10313C00CB2A0008272A00086B280008B50F0008C6
:10314C00F1110008D1290008832A0008BF280008C3
:10315C00DB280008BD290008F728000813290008FF
:10316C00B12900082F2900083B2900083D0E000852
:10317C005F2A00086D29000871290008DC2D000861
:10318C00DC2D0008342E00083C2E0008442E0008CC
:10319C00442E0008040C02020002696E74657272FF
:1031AC007570742D636F6E74726F6C6C65724034D5
:1031BC003030313034303000726363403430303270
:1031CC0031303030006770696F403438303030380F
:1031DC003030006770696F40343830303034303004
:1031EC00006770696F4034383030303030300072E6
:1031FC00657365742D636F6E74726F6C6C657200A1
:10320C0073657269616C4034303030343430300066
:10321C0073657269616C4034303031333830300052
:10322C00000000000000000001020304060708096A
:10323C000102030405060708090A0B0C0D0E0F10FA
:10324C0002030405060708090A0B0C0D0E0F1010DB
:10325C006D61696E002A2A2A20426F6F74696E674D
:10326C00205A6570687972204F53206275696C64BE
:10327C00207A65706879722D76332E352E302D3587
:10328C003337342D67383236643637616639313628
:10329C0039202A2A2A0A00286E756C6C29002A66A5
:0832AC006C6F61742A00000040
:1032B4006F2500087D04000800000000C5250008F3
:1032C4000000000000000000B9090008DD09000842
:1032D40000000000310A0008010A00080000000094
:1032E400750B0008000000004400002000000000EE
:1032F4000000000000C20100000103000000000003
:103304005C000020000000000000000000C201007A
:103314000001030000127A00680000206800002009
:10332400FFFFFFFFFFFFFFFFFFFFFFFFFFFFFFFFA9
:103334000000000000000000000000000000000089
:0433440015E015E09B
:04000005080005C525
:00000001FF
